:020000040800F2
:1000000000C000206D3E0008492400084B24000871
:100010004D2400084F24000851240008000000006F
:100020000000000000000000000000005324000851
:100030005524000800000000572400085924000837
:10004000B53E0008B53E0008B53E0008B53E0008C4
:10005000B53E0008B53E0008B53E0008B53E0008B4
:10006000B53E0008B53E0008B53E0008B53E0008A4
:10007000B53E0008B53E0008B53E0008B53E000894
:1000800061240008B53E0008B53E0008B53E0008F2
:10009000B53E0008B53E0008B53E0008B53E000874
:1000A000B53E0008B53E0008B53E0008B53E000864
:1000B000B53E0008B53E0008B53E0008B53E000854
:1000C000B53E0008B53E0008B53E0008B53E000844
:1000D000B53E00087124000881240008B53E0008E0
:1000E000B53E0008B53E0008B53E0008B53E000824
:1000F000B53E0008B53E0008B53E0008B53E000814
:10010000B53E0008B53E0008B53E0008B53E000803
:10011000B53E0008B53E0008B53E0008B53E0008F3
:10012000B53E0008B53E0008B53E0008B53E0008E3
:1001300000000000000000000000000000000000BF
:1001400000000000000000000000000000000000AF
:10015000000000000000000000000000000000009F
:10016000000000000000000000000000000000008F
:10017000000000000000000000000000000000007F
:10018000000000000000000000000000000000006F
:10019000000000000000000000000000000000005F
:1001A000000000000000000000000000000000004F
:1001B000000000000000000000000000000000003F
:1001C000000000000000000000000000000000002F
:1001D000000000000000000000000000000000001F
:0401E0005FF8E0F1F3
:1001E4000348044B834202D0034B03B118477047C2
:1001F400700000207000002000000000054806493F
:100204000B1AD90F01EBA301491002D0034B03B120
:1002140018477047700000207000002000000000A4
:1002240010B5064C237843B9FFF7DAFF044B13B13A
:100234000448AFF300800123237010BD7000002038
:1002440000000000B83E000808B5044B1BB1044987
:100254000448AFF30080BDE80840CFE70000000089
:1002640074000020B83E000870B50D4E0D4D761B8D
:10027400B61006D00024013455F8043B9847A64232
:10028400F9D1094E094D03F015FE761BB61006D0C0
:100294000024013455F8043B9847A642F9D170BDB7
:1002A4003040000830400008344000083040000866
:1002B400F0B4860746D0541E002A3CD0CAB2034686
:1002C40002E014F1FF3436D303F8012B9D07F8D173
:1002D400032C29D9CDB245EA05250F2C45EA05455D
:1002E40033D9A4F11006360903F1200707EB0617EA
:1002F40003F1100242E9045542E902551032BA42B0
:10030400F8D1721C14F00C0F03EB021204F00F0668
:1003140013D0331F23F003030433134442F8045B64
:100324009342FBD106F003042CB1C9B21C4403F878
:10033400011B9C42FBD1F0BC704734461346002C91
:10034400F3D1F8E714460346C2E71A462646E0E727
:1003540038B5124B05461C68A06B18B10023C0E9E0
:10036400045338BD182000F003F9A06378B10122CA
:100374000023C0E904230A4B0B24836000230949AA
:10038400094A8481C0E90012C0E9045338BD024619
:10039400064B4221064800F0A3F800BF00000020ED
:1003A400ECDE05000E33CDAB34126DE6683F000879
:1003B400803F000838B51A4B1C68A26B92B11469CF
:1003C4001849536901FB04F1174800FB0313A4FB0C
:1003D4000045611C1D4445F1000323F00040C2E9BF
:1003E400041338BD182000F0C3F80246A06388B196
:1003F400012400250B21C0E904450C4B0948136076
:1004040003460B4D0B4C91810B49C2E90154C2E9DF
:10041400041338BD094B4E21094800F061F800BFB0
:10042400000000202DF451582D7F954C0E33CDAB98
:1004340034126DE6ECDE05002E7F954C683F000813
:10044400803F000820F0030110F00300C0F1000019
:1004540051F8043B00F1040C4FEACC0C6FF000029D
:100464001CBF22FA0CF213434FF0010C4CEA0C2C83
:100474004CEA0C4CA3EB0C0222EA030212EACC1263
:1004840004BF51F8043B0430F4D0C2F1000102EA85
:100494000102B2FA82F2C2F11F0200EBD2007047ED
:1004A40030B56FF000449BB0064D0091049169464D
:1004B4000594CDE9024500F001FA0022009B1A7070
:1004C4001BB030BD0802FFFF10B4044C13460A46AB
:1004D4000146206810BCFFF7E3BF00BF0000002006
:1004E40000B50A4C0546206885B01C46C06852B168
:1004F400074BCDE9013200912B462246054900F015
:1005040023F800F099FF044B1A46F2E7000000209C
:10051400B43F0008C43F00084C3F000808B5134628
:100524000022FFF7DDFF00BF0CB410B582B004ACAD
:1005340054F8042B2346019400F03EFB02B0BDE8BE
:10054400104002B0704700BF0EB430B582B005ACA5
:1005540054F8042B054D014623462868019400F005
:100564002BFB02B0BDE8304003B070470000002010
:10057400024B0146186800F05FB800BF000000207D
:10058400024B0146186800F003B800BF00000020C9
:1005940000293AD038B551F8043C0C1F002BB8BFE1
:1005A400E418054601F096FC224B1A682AB1A242CF
:1005B4000DD921686018824221D0626028461C60EF
:1005C400BDE8384001F088BCA34203D81A465368FA
:1005D400002BF9D111685018A04217D022D82168F5
:1005E4006018834203BFD3E900030918C4E9001368
:1005F400636054602846BDE8384001F06DBCD2E920
:1006040000020144C4E90012D8E77047206801449D
:10061400501883421160EDD1D3E900030144C2E9CB
:100624000013E7E70C2328462B60BDE8384001F0AF
:1006340053BC00BF8C000020F8B5CD1C25F0030589
:1006440008350C2D38BF0C25002D064633DBA94296
:1006540031D82A4F01F03EFC3A6852B113685B1B53
:1006640004D43FE023685B1B29D522465468002C40
:10067400F8D1796800293BD02946304600F0EAFDDC
:10068400431C28D0C41C24F00304A04205D0211A22
:10069400304600F0DFFD01301DD02560304601F00A
:1006A4001BFC04F10B0020F00700231DC21A01D02B
:1006B4001B1AA350F8BD0C2200203260F8BD0B2B8E
:1006C40005D8A242636811D05360E7E7144623605B
:1006D4001C442560E2E70C233046336001F0FCFB48
:1006E4000020F8BD0B2BF1D8144653683B60D5E7C6
:1006F400304600F0AFFD7860BEE700BF8C000020FC
:100704002DE9F0478E6880469E420C461D461746EA
:10071400086836D8B1F80CC01CF4906F0DD135467A
:100724002A46394601F070FB0020A2682368961B14
:100734002B44A6602360BDE8F087D1E9041606EBDC
:10074400460606EBD676A0EB0109013376104B443E
:10075400B342324684BF1E4632461CF4806F12D028
:1007640011464046FFF768FF824600B34A462169B6
:1007740001F0D4FAA38923F4906343F08003A381A6
:1007840006E01E46CCE7404601F0A8FB824650B185
:10079400A6EB09030AEB09006661C4F810A0206007
:1007A400A3602E46BCE721694046FFF7F1FE0C2307
:1007B400C8F80030A3894FF0FF3043F04003A38111
:1007C400B9E700BF2DE9F04F936883B09046002B42
:1007D4006DD0176882460C46086808378D6843E078
:1007E400A38913F4906F2ED0D4E9041505EB4505C5
:1007F400A0EB010B05EBD5750BEB06006D1001307A
:10080400A8422A4684BF05462A465B0536D51146CA
:100814005046FFF711FF00283AD05A46216901904B
:1008240001F07CFAA289019B22F4906242F08002DA
:10083400A281A5EB0B0203EB0B006561B3463546C1
:1008440023612060A2605A46494601F0DDFAD8F8D7
:100854000830A2682068551B58449E1BA560206080
:10086400C8F808601EB3083757E90296AB46002E55
:10087400F9D0AE42B4D23546B346E4E7504601F06F
:100884002DFB03460028D4D121695046FFF780FE92
:100894000C2300224FF0FF30CAF80030A38943F044
:1008A4004003A381C8E9012203B0BDE8F08F002012
:1008B400C8F8040003B0BDE8F08F00BF2DE9F04F85
:1008C4008B4689899FB00C069046029004D5DBF8CC
:1008D4001020002A00F00D810020202130220593F1
:1008E40098F8003001270B908DF831108C4E8DF85C
:1008F4003220002B00F08680252B00F0F88045463E
:1009040003E0252B00F0888025466B786C1C002BB7
:10091400F7D1B4EB080A75D04246534659460298BB
:10092400FFF7EEFE01306DD00B9B6A7853440B93B6
:10093400002A67D000234FF0FF3201340693CDE93B
:1009440008338DF85B301C93079206E02C46069B17
:10095400801B07FA00F0184306902546052215F877
:10096400011B304601F094F9AA460028EED1069BFB
:10097400D90644BF20228DF85B201A0748BF2B22DA
:10098400217848BF8DF85B202A2949D1059A11683E
:100994000432002905927FDB09916178A51C2E2978
:1009A40057D0604C0322204601F072F9002869D028
:1009B4004022069B001B02FA00F00343069305F154
:1009C40001082B780622194657488DF8303001F07B
:1009D4005FF9002866D0554B002B56D005AB009329
:1009E4005A46534B06A90298AFF300808146B9F1E9
:1009F400FF3F07D00B9B4B440B9398F80030002B20
:100A04007FF47AAFBBF80C305B064CBF4FF0FF307D
:100A14000B981FB0BDE8F08FB4EB080A8AD07BE7CF
:100A2400A1F13002092A88BFA246B8D8099B01E087
:100A34002C460135297803EB830302EB4303A1F130
:100A44003002092AAA46F3D92E2904F10205099392
:100A5400A7D19AF801102A292ED1059B0AF1020088
:100A64001A680433002A079205939AF802100AF1CF
:100A7400030537DB2B4C82460322204601F008F99C
:100A8400002895D1A84655469BE7059B073323F0DC
:100A9400070308330593ADE7494243F00203099184
:100AA40006937AE705AB00935A46214B06A90298B0
:100AB40000F086FA81469AE70023A1F13002092A60
:100AC400079301D923E05546697803EB830302EBCE
:100AD4004303A1F13002092A05F1010AF3D90235D1
:100AE40007935EE74FF0FF338246079359E7444686
:100AF40020E740210393FFF79FFD039BCBF8000001
:100B0400CBF8100030B14022CBF81420E4E6AA461A
:100B1400013546E70C23029A4FF0FF30136078E763
:100B2400F43F0008FC3F00080040000800000000FB
:100B3400050700089368013B002B93600FDA10B49B
:100B44009469A34208DB0A2906D01368581C106074
:100B54001970084610BC704710BC00F08DBB1368B8
:100B6400581C106019700846704700BF9BB1F8B557
:100B740013440F4606465D1E541E01E0AC4208D0E5
:100B84003A4614F8011F3046FFF7D4FF431CF5D151
:100B9400F8BD0020F8BD0020704700BF936810B571
:100BA400144613B95360184610BD00F02DFE0023FF
:100BB400C4E9013310BD00BF2DE9F04F9FB08B464F
:100BC40090461C46039018B18369002B00F0B9804D
:100BD400A34B9B4500F0BB80A24B9B4500F0C98012
:100BE400A14B9B4504BF039BD3F80CB0BBF80C305E
:100BF400180740F1B480DBF81030002B00F0AF8010
:100C04003023002120228DF8323098F800300594EA
:100C14000B918DF83120954E0127002B00F089802F
:100C2400252B00F01781454603E0252B00F0A58015
:100C340025466B786C1C002BF7D1B4EB080A78D0EE
:100C44004246534659460398FFF790FF013070D04F
:100C54000B9B6A7853440B93002A6AD000234FF00D
:100C6400FF3201340693CDE908338DF85B301C93D1
:100C7400079206E02C46069B801B07FA00F01843F7
:100C840006902546052215F8011B304601F000F8B0
:100C9400AA460028EED1069BD90644BF20228DF82F
:100CA4005B201A0748BF2B22217848BF8DF85B20B0
:100CB4002A2967D1059A1168043200290592C0F2E5
:100CC4009E8009916178A51C2E2974D0684C03225A
:100CD400204600F0DDFF002800F087804022069BBC
:100CE400001B02FA00F00343069305F101082B7878
:100CF400062219465F488DF8303000F0C9FF0028FD
:100D040000F083805C4B002B72D005AB00935A46F5
:100D14005A4B06A90398AFF300808146B9F1FF3F0F
:100D240007D00B9B4B440B9398F80030002B7FF4B7
:100D340077AFBBF80C305B0618D40B981FB0BDE836
:100D4400F08F00F041FD464B9B457FF445AF039B7C
:100D5400D3F804B0BBF80C3018073FF54CAF594634
:100D6400039800F0E9FA00283FF44AAF4FF0FF304F
:100D7400E4E7039BD3F808B038E7B4EB080A3FF480
:100D84006DAF5DE7A1F13002092A88BFA2469BD866
:100D9400099B01E02C460135297803EB830302EB20
:100DA4004303A1F13002092AAA46F3D92E2904F1FA
:100DB400020509938AD19AF801102A292FD1059B9B
:100DC4000AF102001A680433002A079205939AF87C
:100DD40002100AF1030538DB254C82460322204623
:100DE40000F056FF00287FF479AFA84655467EE709
:100DF400059B073323F007030833059391E7494222
:100E040043F00203099106935CE705AB00935A464D
:100E14001A4B06A9039800F0D3F881467EE7002315
:100E2400A1F13002092A079301D915E055466978E2
:100E340003EB830302EB4303A1F13002092A05F11A
:100E4400010AF3D90235079340E74FF0FF33824696
:100E540007933BE7444601E7AA46013536E700BF5E
:100E6400143F0008F43E0008D43E0008F43F000894
:100E7400FC3F00080040000800000000710B00085F
:100E840010B4044C13460A460146206810BCFFF710
:100E940093BE00BF000000202DE9F0470C4609690D
:100EA400A56891468D42B8BF0D46156094F843106D
:100EB40006461F46DDF8208011B16A1CC9F80020DF
:100EC400236899065CD5D9F800200232C9F80020BD
:100ED400236813F0060F19461DD1E1688A1A002A07
:100EE400D8BF194617DD002504F1190A05E0E368A7
:100EF400D9F800209B1AAB420CDD01235246394637
:100F04003046C047013005F10105F0D14FF0FF3004
:100F1400BDE8F087216894F84330003318BF0123FB
:100F24008A060AD53021E21882F8431094F8451055
:100F34005A1C224482F84310023304F14302394616
:100F44003046C0470130E1D02368A26803F00603AD
:100F5400042B21691DD08A4226DD4FF00009521A64
:100F6400914400251A3401E04D451DDA012322463F
:100F740039463046C047013005F10105F4D1C5E7D3
:100F840013F0060F13D094F84330003318BF012335
:100F9400D3E7D9F80000E3688A42A3EB000323EA0D
:100FA400E379DCDC002BDCDC0020BDE8F087E168C1
:100FB400D9F800208A1A002AD8BF194693DCAAE778
:100FC4002DE9F0430C46097E85B06E290646174686
:100FD400984604F1430C0C986DD039D9732900F06C
:100FE400F48044D9752900F00281782940F00F81FA
:100FF40078232268DFF854E284F845300168150646
:1010040051F8043B016040F1A180D10744BF42F094
:1010140020022260002B00F093801022002184F82B
:10102400431060680028A060C0F2C680216821F0E7
:1010340004012160002B40F0A280002840F0BE8013
:101044006546082A00F0AB80ACEB0503236141E060
:10105400632900F0E3801AD8002938D0582940F0D9
:10106400D68084F845102268DFF8E4E1C6E76F29EA
:1010740000F0BD80702940F0CA8078232268DFF830
:10108400CCE142F02002226084F84530B6E76429BE
:1010940002D0692940F0BB8022680368110603F17D
:1010A400040557D5196805600B46002959DB0A2247
:1010B400DFF89CE1B5E7036822681D1D61690560DE
:1010C40015061B6802D4500600F1BB80196000238A
:1010D40065462361CDF800803B4603AA214630468D
:1010E400FFF7DAFE013020D02A462369394630461C
:1010F400C047013019D0226803989207E36819D5D4
:101104001A1A002A16DD002504F1190904E0E3681F
:1011140003981A1AAA420DDD01234A46394630467D
:10112400C047013005F10105F1D14FF0FF3005B0A2
:10113400BDE8F0839842B8BF184605B0BDE8F08317
:101144002168102221F02001216067E7500648BF82
:101154009BB25AE75106A5D5B3F90030056019468C
:10116400A3E72D2061685B42002984F84300A16055
:1011740002DB22F0040222600A22DFF8D4E0654692
:1011840000E00B46B3FBF2F102FB11301EF8000045
:10119400934205F8010DF4D2082A7FF455AF236871
:1011A400DB077FF551AF626823699A423FF74CAF82
:1011B4003023013D2B7047E7002BE0D19EF800302F
:1011C40004F1420584F842303BE703686268191D64
:1011D40001601D680021284600F05AFD002832D025
:1011E400401B60602061002384F8433072E722686A
:1011F400036812F0800F03F104051AD01B68056020
:101204006F290CBF08220A22DFF844E006E7012315
:1012140084F84210236104F14205E4E701220368E3
:1012240004F14205191D1B68016084F842302261F3
:10123400D9E712F0400F0DBF1B6805601B880560DD
:10124400DEE7198043E76068CCE700BF1C40000874
:101254000840000838B50023064C054608462360BC
:1012640001F022F8431C00D038BD2368002BFBD0CA
:101274002B6038BD7C010020F8B50D4614460646A7
:1012840008B1836943B3254B9C422AD0244B9C422A
:1012940029D0244B9C4208BFF468A269A389A260A8
:1012A4001A0722D5236903B322686169D31AEDB200
:1012B40099422F4629DD0133A168501C0139A160F0
:1012C4002060157062699A4216D0A389DB0701D5A4
:1012D4000A2D11D03846F8BD00F076FA0F4B9C4227
:1012E400D4D17468D9E7B468D7E72146304600F012
:1012F40023F838B92369D7E72146304600F03AF994
:101304000028E7D04FF0FF37E4E72146304600F0ED
:1013140031F90028F6D101232268CDE7143F0008F3
:10132400F43E0008D43E0008024B0A460146186801
:10133400FFF7A2BF000000203B4B70B51D680646B6
:101344000C460DB1AB69DBB1384B9C421ED0384B17
:101354009C424AD0374B9C4208BFEC68B4F90C203D
:1013640093B2190718D5206908B313F001022CD0E1
:1013740000226369A2605B42A36160B3002070BD78
:10138400284600F021FA294B9C42E0D16C68B4F95C
:101394000C2093B21907E6D4DD063CD5580726D4B1
:1013A400206942F00803A3819BB20028DDD103F435
:1013B4002072B2F5007FD8D03046214600F01EFCE2
:1013C400A389206913F00102D2D1990758BF626939
:1013D400A2600028D2D1B4F90C301A06CFD543F05C
:1013E4004003A3814FF0FF3070BDAC68B6E7616B7A
:1013F40051B104F14403994204D03046FFF7C8F8D0
:10140400B4F90C20002363630023206922F0240232
:10141400C4E90003C5E7092342F0400233604FF0FA
:10142400FF30A28170BD00BF00000020143F0008FF
:10143400F43E0008D43E000808B5062000F0FAFD8A
:10144400012000F047FF00BF2DE9F0418F890C46D1
:101454003A07804641D44B68002B59DDE66A002EDA
:1014640053D0002317F48052D8F80050216AC8F8EA
:10147400003051D101234046B047431C5FD0A789B7
:10148400E66A216A7F0705D56268636B801A0BB12F
:10149400236CC01A024600234046B047461C45D17F
:1014A400D8F80030B4F90C20002B55D01D2B01D0F6
:1014B400162B5AD100222369C4E90032616BC8F8A3
:1014C400005011B304F14403994202D04046FFF79F
:1014D4005FF800206063BDE8F0810E69AEB10D686D
:1014E4000E60B90714BF00236369AD1BA3600AE053
:1014F4002B463246A76A216A4046B8470028A5EB26
:10150400000506440ADD002DF2DC0020BDE8F08170
:101514000B6C002BA2DCF8E7606DB3E7A3894FF0F6
:10152400FF3043F04003A381BDE8F081002322692A
:101534006360A3892260DA04C0D56065BEE7D8F889
:101544000030002B9BD01D2B0CD0162B0AD0A38966
:1015540043F04003A381D9E72169C4E90013D3040C
:10156400ACD5EAE7C8F80050CFE742F04002A281C8
:10157400CCE700BF0B6923B310B5044682B008B1B1
:101584008369BBB1104B994212D0104B994216D0CB
:101594000F4B994208BFE168B1F90C302BB12046DA
:1015A40002B0BDE81040FFF74FBF002002B010BDED
:1015B4006168F1E7019100F007F90199E2E7A16898
:1015C400EAE70020704700BF143F0008F43E00081B
:1015D400D43E000820B1054B01461868FFF7CABF86
:1015E400034B0449186800F0B3BA00BF00000020A0
:1015F400D03E00087915000800207047014900F02A
:10160400A7BA00BF791500080020704770B5682597
:101614004A1E05FB02F50E4605F17401FFF70CF8AE
:10162400044640B100210C30666005F16802216077
:10163400A060FEF73DFE204670BD00BF1E4B70B596
:101644001D680646AB6943B34835D5E90134013B0F
:1016540005D51EE0013B5A1C04F1680419D0B4F905
:101664000C20002AF6D10025144B6566C4E9005508
:10167400A560C4E90455A5612946E360082204F184
:101684005C00FEF715FEC4E90D55C4E91255204669
:1016940070BD2C682CB12546D7E7284600F010F819
:1016A400D2E704213046FFF7B1FF04462860002842
:1016B400F1D10C233360EAE7D03E00080100FFFFBC
:1016C4002DE9F84F0023334AC0E912331268036549
:1016D400904208BF0123304908BF836181620546F7
:1016E400FFF7ACFF68602846FFF7A8FFA86028460C
:1016F4000024FFF7A3FF04236E68E8602146F3602B
:101704007466C6E90044B460C6E90444B46106F1F1
:101714005C000822FEF7CCFDDFF888B0AF68DFF884
:1017240088A0DFF88890DFF888801C4BC6E9086B36
:10173400C6E90AA9C6F830802146FB6008227C6607
:10174400C7E90044BC60C7E90444BC6107F15C001C
:10175400FEF7AEFDEE68124BC7E9087BC7E90AA99C
:10176400C7F830802146F3607466C6E90044B4606B
:10177400C6E90444B46106F15C000822FEF798FD52
:101784000123C6E9086BC6E90AA9C6F83080AB6133
:10179400BDE8F88FD03E00080116000809000100DA
:1017A40012000200A9200008D1200008112100081D
:1017B40031210008024B0349186800F0C9B900BF81
:1017C400D03E000879150008836903B978E77047AB
:1017D400704700BF704700BF704700BF704700BF2D
:1017E400024B0349186800F08FB900BF00000020C5
:1017F400FD150008024B0349186800F085B900BFC5
:10180400000000200D1600089368002B00F0FC80F7
:101814002DE9F04FB1F90C300C469BB2190783B097
:10182400824690462BD522694AB313F00202D8F8B7
:10183400006033D000273D46D4F828B0216ADFF891
:10184400C492C5B14D452B463A4628BF4B46504637
:10185400D847002840F3CE80D8F8083007441B1A34
:101864002D1AC8F80830002B00F0B380D4F828B043
:10187400216A002DE6D1D6E900750836E1E7214654
:101884005046FFF759FD002840F03781B4F90C3079
:10189400D8F800609BB213F00202CBD113F0010917
:1018A40040F0B4804D46A7682068002D55D09A05B5
:1018B40040F1C080AF42BB4600F2EE8013F4906F5B
:1018C4002FD0D4E9041707EB4707A0EB010B07EB74
:1018D400D777681C7F105844B8423A4684BF0746FD
:1018E4003A465B0540F1F08011465046FEF7A4FEEF
:1018F400002800F0FC805A462169019000F00EFA9D
:10190400A289019B22F4906242F08002A281A7EB9B
:101914000B0203EB0B006761AB462F46236120608B
:10192400A2605A46494600F06FFA2368A2685B44F5
:10193400AB460025D71BA7602360D8F80870D944AC
:10194400A7EB0B07C8F80870002F42D0B4F90C308D
:10195400A7689BB22068002DA9D1D6E90095083666
:10196400A3E70BF1080353F8047C9B4653F8086C77
:101974000833002FF7D03A460A21304600F088F9A0
:10198400002854D00130A0EB06094B462068216999
:10199400BB4228BF3B468842626903D9A568154407
:1019A400AB421ADC9A4200F381801346A56A3246A0
:1019B400216A5046A847051E1CDDB9EB05096ED007
:1019C4000120D8F808302E445B1B7F1BC8F8083070
:1019D40013BB002003B0BDE8F08F31462A4600F067
:1019E40013FA236821462B4423605046FFF7C2FDB7
:1019F4000028E2D0B4F90C304FF0FF3043F040033C
:101A0400A38103B0BDE8F08F0020704733469146B0
:101A1400104617464E469B46002FA2D00028B4D14C
:101A24003A460A21304600F033F90028AAD17B1C3B
:101A34009946ABE72369834217D36269AA4214D853
:101A44002F4BA76A9D4294BF2B466FF0004393FB34
:101A5400F2F3216A02FB03F350464A46B847B0F159
:101A6400000BC7DDA5EB0B0567E7AF4228BF2F4688
:101A740049463A4600F0C8F9A3682268DB1B3A4499
:101A8400BB46A3602260002BECD121465046FFF7F1
:101A940071FD0028E6D0ADE72F46AB4641E721466D
:101AA4005046FFF767FD00288BD0A3E71A4631465E
:101AB4001D46019300F0A8F9A1682268019BC91A88
:101AC4001344A160236078E7504600F007FA034608
:101AD40000287FF41CAF21695046FEF759FD0C2203
:101AE400B4F90C30CAF8002023F0800384E70C22F8
:101AF400B4F90C30CAF800207EE74FF0FF3069E7F4
:101B0400FEFFFF7F00FCFF7F2DE9F04110F1480745
:101B14001AD088460026D7E90154013D0ED4A38982
:101B2400013D012B06D9B4F90E30013302D0204611
:101B3400C04706436B1C04F16804F0D13F68002FD2
:101B4400E9D13046BDE8F0813E463046BDE8F0813B
:101B54002DE9F84310F148061ED0884607464FF099
:101B64000009D6E90154013D10D4A389013D012B9C
:101B740008D9B4F90E30013304D021463846C047A1
:101B840049EA00096B1C04F16804EED13668002EA2
:101B9400E7D14846BDE8F883B1464846BDE8F88336
:101BA40070B50C46B1F90E1096B0002916461D46C4
:101BB40013DB6A4600F0E6FA00280EDB019A4FF4C4
:101BC400806302F47042A2F50052B2FA82F200205D
:101BD40052092A60336016B070BD0022A3892A60BE
:101BE4001B0604D540230020336016B070BD4FF4AB
:101BF40080630020336016B070BD00BF8A890B4635
:101C0400920706D5012103F1470259611A601A614E
:101C1400704770B582B001AB6A460C460646FFF7C2
:101C2400BFFF009905463046FEF706FDB4F90C30B7
:101C340070B1164A0099B262019A43F08003A381FD
:101C44002060C4E904018AB92B43A38102B070BDAA
:101C54009A05FBD4012123F0030304F1470243F066
:101C64000203A381616122602261EFE73046B4F987
:101C74000E1000F09BFA10B9B4F90C30E4E7A38914
:101C840023F0030343F001031BB2DDE70116000850
:101C9400830770B4CDB23DD0541E0AB30378AB426F
:101CA4001FD0431C05E014F1FF3419D30278AA4273
:101CB40017D013F0030F184603F10103F3D1032CDB
:101CC40011D84CB30378AB420BD00444431C02E05C
:101CD4000278AA4205D09C42184603F10103F7D1C9
:101CE400002070BC704702460E02B6B22E4346EA8C
:101CF4000646136810467340A3F1013121EA030339
:101D040013F0803F02F10402DCD1043C032C1046A2
:101D1400EFD8D6E71446D2E72046E2E7844641EA04
:101D2400000313F0030349D1403A23D30B68036043
:101D34004B6843608B688360CB68C3600B69036145
:101D44004B6943618B698361CB69C3610B6A03622D
:101D54004B6A43628B6A8362CB6AC3620B6B036315
:101D64004B6B43638B6B8363CB6BC36340304031FA
:101D7400403ADBD230320BD30B6803604B684360CC
:101D84008B688360CB68C36010301031103AF3D293
:101D94000C3205D351F8043B40F8043B043AF9D221
:101DA400043208D0D2071CBF11F8013B00F8013BF4
:101DB40001D30B8803806046704700BF082A13D301
:101DC4008B07B1D010F00303AED0C3F10403D21AD1
:101DD400DB071CBF11F8013B00F8013BA4D331F829
:101DE400023B20F8023B9FE7043AD9D3013A11F8A9
:101DF400013B00F8013BF9D20B7803704B78437038
:101E04008B788370604670478842F0B40DD98B1884
:101E140083420AD9841832B1224613F8014D9942FB
:101E240002F8014DF9D1F0BC70470F2A0ED80346D1
:101E3400541E002AF7D001340C44013B11F8012B45
:101E4400A14203F8012FF9D1F0BC704740EA010325
:101E54009B073AD1A2F110073F0901F1200606EBD6
:101E6400071601F1100300F1100453F8105C10334D
:101E740044F8105C53F81C5C103444F81C5C53F8B0
:101E8400185C44F8185C53F8145CB34244F8145CCE
:101E9400EBD17B1C1B0112F00C0F194402F00F054F
:101EA400034415D00E46043DAD0803EB850C1C1FFE
:101EB40056F8047B44F8047F6445F9D10135AD003C
:101EC4002B44294402F00302B2E7541E0346B2E74E
:101ED4002A46ADE7704700BF704700BF09B3F8B5A5
:101EE4001446CAB106460D4600F088F9A04202D352
:101EF4002F463846F8BD21463046FEF79DFB07467F
:101F04000028F6D022462946FFF708FF3046294626
:101F1400FEF73EFB3846F8BD2746FEF739FB384648
:101F2400F8BD1146FEF788BB10B580210446FEF7C4
:101F340083FB606440B10022031F7C3043F8042F0C
:101F44008342FBD1002010BD4FF0FF3010BD00BF15
:101F5400436C0BB100207047E6E700BF1F2970B542
:101F6400054608D8436C16460C464BB153F824007A
:101F740043F8246070BD16224FF0FF302A6070BD14
:101F8400FFF7D2FF08B96B6CF0E74FF0FF3070BD7C
:101F94001F2938B5054620D8426C0C466AB152F860
:101FA400213053B1012B16D0591C10D000252046E6
:101FB40042F824509847284638BD284600F070F867
:101FC400224601462846BDE8384000F055B816239D
:101FD40001202B6038BD002038BD16234FF0FF30A0
:101FE4002B6038BD1F2921D838B5436C05460C46F3
:101FF40083B153F8242003EB84034AB1511C10D05D
:10200400012A0CD0002520461D609047284638BD83
:10201400012038BDFFF788FF28B96B6CE9E703207E
:1020240038BD022038BD4FF0FF3038BD4FF0FF30CF
:10203400704700BF024B01461868FFF7A9BF00BFF5
:1020440000000020024B0A4601461868FFF786BFCD
:1020540000000020034B1868436C0BB1002070474C
:1020640062E700BF00000020024B01461868FFF73A
:10207400B9BF00BF0000002070B50D460023074C17
:10208400064611462846236000F0F6F8431C00D0AB
:1020940070BD2368002BFBD0336070BD7C01002031
:1020A40000F0DAB810B50C46B1F90E1000F0AEF835
:1020B400002803DB636D0344636510BDA38923F427
:1020C4008053A38110BD00BF002070472DE9F0416B
:1020D400B1F90C409846E3050D461746B1F90E10C8
:1020E400064609D424F48054AC8143463A4630462B
:1020F400BDE8F04100F01EB80223002200F068F8A9
:10210400B5F90C40B5F90E10ECE700BF10B50C465C
:10211400B1F90E1000F05CF8A389421C0EBF23F441
:10212400805343F480536065A38110BDB1F90E1050
:1021340000F016B8F8B50E460025084C11460746BF
:102144001A463046256000F0BDF8431C00D0F8BDA7
:102154002368002BFBD03B60F8BD00BF7C0100204E
:1021640038B50023064C05460846236000F064F8A1
:10217400431C00D038BD2368002BFBD02B6038BD36
:102184007C01002070B50D460023074C064611461D
:102194002846236000F058F8431C00D070BD236823
:1021A400002BFBD0336070BD7C01002038B50023C8
:1021B400064C05460846236000F056F8431C00D040
:1021C40038BD2368002BFBD02B6038BD7C01002078
:1021D400F8B50E460025084C114607461A46304607
:1021E400256000F051F8431C00D0F8BD2368002B93
:1021F400FBD03B60F8BD00BF7C01002051F8043CDB
:10220400181F002BBCBF0B58C0187047F8B50E46FA
:102214000025084C114607461A463046256000F052
:102224003BF8431C00D0F8BD2368002BFBD03B6077
:10223400F8BD00BF7C0100205822024B4FF0FF3054
:102244001A6070477C0100205822024B4FF0FF3087
:102254001A6070477C0100205822024B4FF0FF3077
:102264001A6070477C0100205822024B00201A603B
:10227400704700BF7C0100205822024B4FF0FF3012
:102284001A6070477C0100205822024B4FF0FF3047
:102294001A6070477C0100205822024B4FF0FF3037
:1022A4001A6070477C010020044A05491368002B1A
:1022B40008BF0B461844106018467047940000206D
:1022C400800100205822024B4FF0FF301A60704703
:1022D4007C010020FEE700BF10B5084C4FF0FF332F
:1022E40006222146064801F00EFB064801F0D6F905
:1022F40006222146044801F09BFD10BD9C000020ED
:10230400F4000020343F00083801002072B6FEE7D4
:1023140000B591B0002309930B930C93019302939E
:10232400039304930593012106914FF4803207929D
:1023340008930A9102230D930E924FF4E0130F9326
:1023440006A800F039F980B90F2301930221029104
:10235400002303934FF480620492059301A800F0D4
:1023640069FB20B911B05DF804FBFFF7CFFFFFF75D
:10237400CDFF000038B500F0D1F8FFF7C9FF00F039
:102384002FF801F0A9F801F0C1F801F0D9F80622FC
:102394000E490F4801F04CFDFEF70CF80D4B83FB82
:1023A4000023C417C4EBA3440B4B03FB14040B4DD1
:1023B4002146284601F072F92146284601F08AF99F
:1023C40040F6B83000F0CEF8E6E700BF9C000020ED
:1023D4003801002083DE1B4340420F00383F0008D1
:1023E40030B587B000240294039404940594134BED
:1023F4009A6942F020029A619A6902F020020092DE
:10240400009A9A6942F004029A619B6903F00403FA
:102414000193019B0A4D22460421284600F002FD47
:10242400042302930123039304940223059302A932
:10243400284600F0DBFB07B030BD00BF00100240AF
:1024440000140140FEE7FEE7FEE7FEE7FEE7704703
:102454007047704708B500F073F808BD08B5024826
:1024640000F058FE08BD00BFB000002008B50248C7
:1024740001F064FB08BD00BFF400002008B5024869
:1024840001F05CFB08BD00BF3801002082B00E4B98
:102494009A6942F001029A619A6902F0010200927B
:1024A400009ADA6942F08052DA61DB6903F0805302
:1024B4000193019B054A536823F0E06343F00073E2
:1024C400536002B0704700BF00100240000001409A
:1024D40010B504460E4B18784FF47A73B3FBF0F33F
:1024E4000C4A1068B0FBF3F000F0DEFF68B90F2C63
:1024F40001D901200AE0002221464FF0FF3000F00C
:1025040091FF054B1C60002000E0012010BD00BFBE
:10251400640000206C0000206800002008B5074A11
:10252400136843F010031360032000F069FF0F20C9
:10253400FFF7CEFFFFF7AAFF002008BD00200240EE
:10254400034A1168034B1B780B441360704700BFA8
:10255400AC00002064000020014B1868704700BFE5
:10256400AC00002038B50446FFF7F6FF0546B4F189
:10257400FF3F02D0044B1B781C44FFF7EDFF401BC8
:10258400A042FAD338BD00BF6400002082B0084BDB
:102594001B68084AA2FB03235B0A00FB03F30193B5
:1025A40000BF019B5A1E0192002BF9D102B0704763
:1025B4006C000020D34D6210002800F0F18170B54A
:1025C40082B00446036813F0010F2CD0AA4B5B6859
:1025D40003F00C03042B1DD0A74B5B6803F00C0322
:1025E400082B12D06368B3F5803F41D0002B55D13E
:1025F40003F1804303F504331A6822F480321A602D
:102604001A6822F480221A6037E09B4B5B6813F44B
:10261400803FE7D0984B1B6813F4003F03D06368F6
:10262400002B00F0BF81236813F0020F75D0924B8A
:102634005B6813F00C0F5FD08F4B5B6803F00C03E7
:10264400082B54D02369002B00F089808B4B012286
:102654001A60FFF781FF0546874B1B6813F0020FD2
:1026640074D1FFF779FF401B0228F5D903209EE1BE
:10267400814A136843F480331360636843B3FFF7FC
:102684006BFF05467C4B1B6813F4003FCBD1FFF76F
:1026940063FF401B6428F5D9032088E1B3F5A02F1C
:1026A40009D0754B1A6822F480321A601A6822F431
:1026B40080221A60E1E703F18043A3F53C331A68F2
:1026C40042F480221A601A6842F480321A60D4E715
:1026D400FFF742FF0546684B1B6813F4003FA2D086
:1026E400FFF73AFF401B6428F5D903205FE1624BF2
:1026F4005B6813F4803FA5D15F4B1B6813F0020F96
:1027040003D02369012B40F04F815B4A136823F007
:10271400F803616943EAC1031360236813F0080FE7
:1027240032D0A369002B45D0554B01221A60FFF724
:1027340013FF0546504B5B6A13F0020F21D1FFF7DC
:102744000BFF401B0228F5D9032030E14A4A1368E5
:1027540023F0F803616943EAC1031360DDE7474BE3
:1027640000221A60FFF7F8FE0546434B1B6813F07E
:10277400020FD2D0FFF7F0FE401B0228F5D9032048
:1027840015E10120FFF702FF236813F0040F00F0A6
:102794009780394BDB6913F0805F1DD1364BDA69C2
:1027A40042F08052DA61DB6903F080530193019BAC
:1027B400012512E0324B00221A60FFF7CDFE0546D8
:1027C4002D4B5B6A13F0020FDED0FFF7C5FE401BF2
:1027D4000228F5D90320EAE000252A4B1B6813F4EC
:1027E400807F11D0E368012B22D0002B38D103F174
:1027F400804303F504331A6A22F001021A621A6A4A
:1028040022F004021A6218E01E4A136843F480732B
:102814001360FFF7A1FE06461A4B1B6813F4807F72
:10282400E0D1FFF799FE801B6428F5D90320BEE0B0
:10283400114A136A43F001031362E36873B3FFF7A9
:102844008BFE06460C4B1B6A13F0020F37D1FFF7C1
:1028540083FE801B41F288339842F3D90320A6E01B
:10286400052B11D0044B1A6A22F001021A621A6A6B
:1028740022F004021A62E0E7001002400000424223
:1028840080044242007000404D4B1A6A42F0040238
:102894001A621A6A42F001021A62CEE7FFF75CFE7E
:1028A4000646474B1B6A13F0020F08D0FFF754FE8D
:1028B400801B41F288339842F3D9032077E0E5B9CD
:1028C400E369002B72D03E4A526802F00C02082AD7
:1028D40056D0022B17D03B4B00221A60FFF73CFE68
:1028E4000446374B1B6813F0007F47D0FFF734FED4
:1028F400001B0228F5D9032059E0314AD36923F09B
:102904008053D361DCE72F4B00221A60FFF724FECB
:1029140005462B4B1B6813F0007F06D0FFF71CFE07
:10292400401B0228F5D9032041E0236AB3F5803F18
:102934001AD023494B6823F47413226A606A024351
:1029440013434B601F4B01221A60FFF705FE044638
:102954001B4B1B6813F0007F0ED1FFF7FDFD001B1E
:102964000228F5D9032022E0154A536823F40033E2
:10297400A1680B435360DCE7002018E0002016E058
:10298400012B16D00E4B5B6803F48031226A91420E
:1029940011D103F47013626A93420ED1002006E051
:1029A40001207047012002E0012000E0002002B075
:1029B40070BD0120FBE70120F9E70120F7E700BF24
:1029C400001002406000424286B0164B0FCB0DF15E
:1029D400180C0CE90F0040F20123ADF80430124B3F
:1029E4005B6803F00C02082A02D0104806B0704756
:1029F400C3F38342624412F8102C13F4803F0CD0CA
:102A0400094B5B68C3F34043634413F8143C074821
:102A140000FB02F0B0FBF3F0E8E7054800FB02F02E
:102A2400E4E700BF3C3F00080010024000127A00B7
:102A340000093D00002800F0A08070B50D46044652
:102A4400524B1B6803F007038B420BD24F4A1368A7
:102A540023F007030B431360136803F007038B424F
:102A640040F08D80236813F0020F17D013F0040F89
:102A740004D0474A536843F4E0635360236813F077
:102A8400080F04D0424A536843F460535360404AE9
:102A9400536823F0F003A1680B435360236813F0D9
:102AA400010F31D06368012B20D0022B25D0384A86
:102AB400126812F0020F64D035494A6822F003020A
:102AC40013434B60FFF748FD0646314B5B6803F048
:102AD4000C036268B3EB820F16D0FFF73DFD801B39
:102AE40041F288339842F0D9032045E0284A12681D
:102AF40012F4003FE0D101203EE0254A126812F0B2
:102B0400007FD9D1012037E0204B1B6803F0070375
:102B1400AB420AD91D4A136823F007032B43136001
:102B2400136803F00703AB422DD1236813F0040F9D
:102B340006D0174A536823F4E063E1680B435360FB
:102B4400236813F0080F07D0114A536823F4605325
:102B5400216943EAC1035360FFF736FF0C4B5B68FE
:102B6400C3F303130B4AD35CD8400B4B18600B4BD5
:102B74001868FFF7ADFC002070BD012070470120EC
:102B8400FAE70120F8E70120F6E700BF0020024041
:102B940000100240503F00086C0000206800002034
:102BA400014B1868704700BF6C00002008B5FFF7A0
:102BB400F7FF044B5B68C3F30223034AD35CD8409A
:102BC40008BD00BF00100240603F000808B5FFF7D1
:102BD400E7FF044B5B68C3F3C223034AD35CD840CA
:102BE40008BD00BF00100240603F0008F0B482B08E
:102BF40000252C46ABE0854FBB4210D007D9844F4B
:102C0400BB420CD007F58037BB4208D013E0A7F5D0
:102C14008017BB4203D007F57027BB4207D18B68EE
:102C2400002B60D0012B59D04261082503E0A7F5A1
:102C34008017BB42F3D0FF2E57D88446FF2E57D8B7
:102C4400A200DCF800300F27974023EA070305FAB7
:102C540002F21343CCF800304B6813F0805F75D058
:102C64006C4B9A6942F001029A619B6903F001037B
:102C74000193019BA208971C674B53F827C004F0EB
:102C840003039F000F23BB402CEA030C634B9842C1
:102C940034D003F58063984200F0948003F5806398
:102CA400984200F0918003F58063984200F08E8092
:102CB40003F58063984200F08B8003F580639842AB
:102CC4001AD006231BE0CD68B5E7CD680435B2E71A
:102CD400CD680835AFE7CD680C35ACE7026108254F
:102CE400A9E70025A7E70425A5E700F1040CA5E75B
:102CF400A4F108029200A4E7052300E00023BB40EE
:102D040043EA0C030232444F47F822304B6813F471
:102D1400803F5FD0424A1368334313604B6813F417
:102D2400003F5DD03E4A5368334353604B6813F40D
:102D3400801F5BD03A4A9368334393604B6813F423
:102D4400001F59D0364AD3681E43D66001340B683D
:102D540033FA04F256D00122A24003EA020632EA10
:102D64000303F3D14B68122B3FF645AF122B3FF60A
:102D740062AF01A757F823F0232C0008CB2C0008DE
:102D8400D52C0008E72C00083B2C00083B2C00083D
:102D94003B2C00083B2C00083B2C00083B2C000873
:102DA4003B2C00083B2C00083B2C00083B2C000863
:102DB4003B2C00083B2C00083B2C0008CF2C0008BF
:102DC400DB2C000801239AE7022398E7032396E704
:102DD400042394E7124A136823EA060313609DE769
:102DE4000F4A536823EA060353609FE70C4A93682B
:102DF40023EA06039360A1E7094AD36823EA060697
:102E0400D660A3E702B0F0BC704700BF00002210F8
:102E14000000311000100240000001400008014091
:102E2400000401400AB1016170470904016170475F
:102E340070B4066CC56B0124B4406C6004686360B4
:102E44004368102B05D0036899600368DA6070BC8E
:102E5400704703689A600368D960F8E700283AD09D
:102E640010B4024600681D4B984229D81C4B0344F9
:102E74001C49A1FB03131B099B0013641A4BD36366
:102E8400022382F82130016821F47F5121F03001BE
:102E9400536894682343D4682343146923435469CF
:102EA400234394692343D46923430B4303600020E1
:102EB4009063012382F8213082F8200010BC70470F
:102EC4000A4B03440749A1FB03131B099B0013642A
:102ED400074BD363D4E70120704700BF07040240C7
:102EE400F8FFFDBFCDCCCCCC00000240F8FBFDBF09
:102EF4000004024038B5044690F82000012831D07F
:102F0400012084F8200094F82100012804D0002333
:102F140084F82030022038BD022084F821000020EB
:102F2400A0632568286820F0010028602046FFF788
:102F34007FFFE36A5BB12268136843F00E031360FA
:102F44002268136843F0010313600020E3E722685A
:102F5400136823F0040313602268136843F00A0320
:102F64001360EDE70220D6E790F82130022B06D05B
:102F740004238363002380F8203001207047026813
:102F8400136823F00E0313600268136823F001032F
:102F94001360036CC16B012202FA03F34B6080F8E7
:102FA4002120002380F820301846704708B590F897
:102FB4002130022B03D004238363012008BD02685F
:102FC400136823F00E0313600268136823F00103EF
:102FD400136003684B4A93424ED9783A934224D003
:102FE4001432934230D0143293422FD0143293428D
:102FF4002FD0143293422FD0143293422FD0143254
:1030040093422FD002F5627293422ED0143293422F
:103014002DD0143293422CD01432934202D04FF468
:10302400803203E04FF4805200E00122364B5A60B4
:10303400012380F82130002380F82030436B002BDB
:103044005ED098470020B9E71022EFE74FF4807272
:10305400ECE74FF48052E9E74FF48032E6E74FF4AF
:103064008012E3E74FF08072E0E70122DEE71022EE
:10307400DCE74FF48072D9E7244A934224D0143217
:10308400934225D01432934224D01432934224D054
:103094001432934224D01432934224D014329342F3
:1030A40024D002F56272934223D01432934222D088
:1030B4001432934221D01432934202D04FF480321E
:1030C40003E04FF4805200E00122114B5A60AFE755
:1030D4001022FAE74FF48072F7E74FF48052F4E7D6
:1030E4004FF48032F1E74FF48012EEE74FF0807234
:1030F400EBE70122E9E71022E7E74FF48072E4E707
:1031040000205BE780000240000402400800024007
:103114000000024038B5C36B1A6804682568016C66
:1031240004238B40134200F09B8015F0040F00F041
:103134009780236813F0200F03D1236823F004033E
:1031440023600368AA4A934246D9783A934224D02A
:103154001432934228D01432934227D0143293422B
:1031640027D01432934227D01432934227D01432FA
:10317400934227D002F56272934226D014329342CE
:1031840025D01432934224D01432934202D04FF407
:10319400802203E04FF4804200E00422954B5A6001
:1031A400C36A03B1984738BD4022F7E74FF4806201
:1031B400F4E74FF48042F1E74FF48022EEE74FF456
:1031C4008002EBE74FF08062E8E70422E6E7402262
:1031D400E4E74FF48062E1E7874A934224D0143253
:1031E400934225D01432934224D01432934224D0F3
:1031F4001432934224D01432934224D01432934292
:1032040024D002F56272934223D01432934222D026
:103214001432934221D01432934202D04FF48022CC
:1032240003E04FF4804200E00422744B5A60B7E795
:103234004022FAE74FF48062F7E74FF48042F4E764
:103244004FF48022F1E74FF48002EEE74FF0806202
:10325400EBE70422E9E74022E7E74FF48062E4E782
:1032640002238B40134200F0A38015F0020F00F0FC
:103274009F80236813F0200F06D1236823F00A03EC
:103284002360012380F821300368594A93424BD9C3
:10329400783A934224D0143293422DD0143293427C
:1032A4002CD0143293422CD0143293422CD01432AA
:1032B40093422CD0143293422CD002F56272934282
:1032C4002BD0143293422AD01432934229D0143290
:1032D400934202D04FF4003203E04FF4005200E076
:1032E4000222444B5A60002380F82030836A002B6A
:1032F4003FF459AF984756E72022F2E74FF40072A3
:10330400EFE74FF40052ECE74FF40032E9E74FF4F3
:103314000012E6E74FF00072E3E70222E1E7202221
:10332400DFE74FF40072DCE7334A934224D01432CF
:10333400934225D01432934224D01432934224D0A1
:103344001432934224D01432934224D01432934240
:1033540024D002F56272934223D01432934222D0D5
:103364001432934221D01432934202D04FF40032EB
:1033740003E04FF4005200E00222204B5A60B2E70F
:103384002022FAE74FF40072F7E74FF40052F4E713
:103394004FF40032F1E74FF40012EEE74FF0007201
:1033A400EBE70222E9E72022E7E74FF40072E4E7C3
:1033B400082303FA01F111423FF4F5AE15F0080FAA
:1033C4003FF4F1AE236823F00E032360026CC16B5B
:1033D400012303FA02F24A60836380F82130002358
:1033E40080F82030036B002B3FF4DDAE9847DAE61B
:1033F4008000024000040240080002400000024035
:10340400074AD36823F4E0631B041B0C000200F496
:10341400E060034343F0BF6343F40033D360704779
:1034240000ED00E030B4174BDB68C3F30223C3F1B3
:103434000704042C28BF04241D1D062D18D9033BA2
:103444004FF0FF3505FA04F421EA0401994005FA26
:1034540003F322EA0303194300280BDB0901C9B271
:1034640000F1604000F5614080F8001330BC704703
:103474000023E5E700F00F000901C9B2024B19541B
:10348400F4E700BF00ED00E014ED00E0002807DBE6
:1034940000F01F02400901239340024A42F8203001
:1034A400704700BF00E100E00138B0F1807F0AD22C
:1034B400064B5860064AF02182F8231000209860D9
:1034C40007221A6070470120704700BF10E000E037
:1034D40000ED00E07047000000B583B00A4B5A6964
:1034E40042F001025A615B6903F001030193019BFD
:1034F400002211461020FFF795FF1020FFF7C6FFAA
:1035040003B05DF804FB00BF0010024008B50A4890
:103514000A4B03604FF4E133436000238360C360CC
:1035240003610C2242618361C36100F0BDF900B9FB
:1035340008BDFEF7EBFEFBE7F40000200038014075
:1035440008B50A480A4B03604FF41653436000233E
:103554008360C36003610C2242618361C36100F034
:10356400A3F900B908BDFEF7D1FEFBE7380100203E
:103574000044004070B588B000230493059306937B
:10358400079303683F4A934205D004463E4A934258
:1035940033D008B070BD3D4B9A6942F480429A61C1
:1035A4009A6902F480420092009A9A6942F00402F5
:1035B4009A619B6903F004030193019B4FF4007328
:1035C40004930223059303230793314D04A928464A
:1035D400FFF70CFB4FF480630493002405940694D6
:1035E40004A92846FFF702FB224621462520FFF7BF
:1035F40019FF2520FFF74AFFCBE7244BDA6942F491
:103604000032DA61DA6902F400320292029A9A69AB
:1036140042F004029A619B6903F004030393039B41
:10362400042304930223059303230793184E04A948
:103634003046FFF7DBFA0823049300250595069529
:1036440004A93046FFF7D2FA1248134B03604560D1
:1036540085608023C360056145618561C561FFF7AD
:10366400FDFB58B90B4BA3635C6200221146262074
:10367400FFF7D8FE2620FFF709FF8AE7FEF746FE8C
:10368400F0E700BF00380140004400400010024051
:1036940000080140B00000206C0002400FB400B5E7
:1036A400B5B036AA52F8041B339201A8FCF70CFFFC
:1036B40001A8FCF7C7FE4FF0FF3382B201A904480A
:1036C40000F021F935B05DF804EB04B0704700BF99
:1036D400F40000200FB400B5B5B036AA52F8041BAC
:1036E400339201A8FCF7F0FE01A8FCF7ABFE4FF003
:1036F400FF3382B201A9044800F005F935B05DF842
:1037040004EB04B0704700BF380100200268D3689E
:1037140023F0C003D360202380F83D307047026853
:10372400D36823F49073D3600268536923F00103D0
:103734005361036B012B05D0202380F83E30002316
:10374400036370470268D36823F01003D360F3E780
:1037540090F83D30DBB2212B01D002207047836802
:10376400B3F5805F17D0036A5A1C02621A780368A3
:103774005A60C38C9BB2013B9BB2C3844BB90268B1
:10378400D36823F08003D3600268D36843F0400316
:10379400D360002070470369002BE4D1036A1B88BF
:1037A4000268C3F308035360036A02330362E0E769
:1037B40010B504460268136923F44053C1680B43EF
:1037C400136183680269134342691A430168CB6831
:1037D40023F4B05323F00C031343CB600268536902
:1037E40023F4407381690B4353610268124B9A427C
:1037F4001FD0FFF7DBF900EB800303EB8303626860
:103804009200B3FBF2F20D48A0FB02314909642394
:1038140003FB11231B013233A0FB03235B0903F0D9
:10382400F00202EB011203F00F03216813448B60D2
:1038340010BDFFF7CBF9DEE7003801401F85EB51DF
:103844002DE9F84305460F4616469946DDF82080D3
:103854002C68246837EA04030CBF01240024B44212
:103864001FD1B8F1FF3FF3D0B8F1000F05D0FEF738
:1038740073FEA0EB09004045EAD92A68D36823F413
:10388400D073D3602A68536923F001035361202362
:1038940085F83D3085F83E30002385F83C30032020
:1038A40000E00020BDE8F88358B310B5044690F852
:1038B4003D300BB3242384F83D302268D36823F4CD
:1038C4000053D3602046FFF773FF2268136923F483
:1038D400904313612268536923F02A0353612268D9
:1038E400D36843F40053D36000202064202384F879
:1038F4003D3084F83E3010BD80F83C30FFF73AFE8E
:10390400D8E7012070472DE9F04182B01E4690F8B7
:103914003D30DBB2202B54D104460D46904600299D
:1039240053D0002A53D090F83C30012B51D00123BE
:1039340080F83C3000230364212380F83D30FEF7F7
:103944000BFE0746A4F82480A4F82680A368B3F5E8
:10395400805F05D04FF00008002384F83C3012E06B
:10396400236913B14FF00008F6E7A8460025F3E7F2
:1039740038F8023B2268C3F308035360E28C92B226
:10398400013A92B2E284E38C9BB273B100963B4657
:10399400002280212046FFF753FFE0B9002DE7D035
:1039A40015F8012B23685A60E8E700963B4600228D
:1039B40040212046FFF744FF78B9202384F83D30A6
:1039C40000E0022002B0BDE8F0810120FAE7012006
:1039D400F8E70220F6E70320F4E70320F2E7704754
:1039E40008B50168CA6822F04002CA60202280F843
:1039F4003D20FFF7F4FF002008BD7047704710B565
:103A0400446A23685A6994F83D30DBB2212B10D004
:103A140023685A6902F0400294F83E30DBB2222B4C
:103A240011D0236C43F0100323642046FFF7E6FF14
:103A340010BD02F08002002AEAD00023E38420466D
:103A4400FFF764FEE4E7002AEBD00023E385204679
:103A5400FFF765FEE5E708B5406A0023C385C38424
:103A6400FFF7CCFF08BD704790F83E30DBB2222B45
:103A740060D18368B3F5805F46D0826AB3F5805F16
:103A840004D0002B4DD10369002B4AD103685B6835
:103A94001370836A01338362C38D9BB2013B9BB273
:103AA400C385002B48D100B583B00268D36823F0E6
:103AB4002003D3600268D36823F48073D360026860
:103AC400536923F001035361202380F83E30036BD4
:103AD400012B2CD1002303630268D36823F0100365
:103AE400D36003681A6812F0100F06D00022019206
:103AF4001A6801925B680193019B818DFFF7B3FF04
:103B0400002003B05DF804FB0269002AB5D1826A83
:103B140003685B68C3F308031380836A0233836218
:103B2400BAE703685B6803F07F031370B1E7FEF73D
:103B3400D3FBE5E7022070470020704730B583B01F
:103B4400044602681368D068516913F00F0505D163
:103B540013F0200F02D010F0200F19D12DB111F065
:103B6400010119D110F4907F16D1216B012975D070
:103B740013F0800F03D010F0800F40F0D78013F0C3
:103B8400400F03D010F0400F40F0D48003B030BD9C
:103B94002046FFF769FFF9E713F0010F06D010F490
:103BA400807F03D0226C42F00102226413F0040FE0
:103BB40004D019B1226C42F00202226413F0020F05
:103BC40004D019B1226C42F00402226413F0080FED
:103BD40007D010F0200F00D119B1226C42F0080276
:103BE4002264226C002AD1D013F0200F02D010F0EE
:103BF400200F21D123685B6903F04003226C12F08B
:103C0400080F00D123B32046FFF789FD23685A69C2
:103C140012F0400F18D05A6922F040025A61A36B87
:103C240073B1464A5A63A06BFFF7C0F90028ADD0C0
:103C3400A06B436B9847A9E72046FFF715FFD9E728
:103C44002046FFF7DBFEA1E72046FFF7D7FE9DE7FE
:103C54002046FFF7D3FE0023236497E713F0100FE9
:103C640086D010F0100F83D00023019313680193C2
:103C740053680193019B536913F0400F32D0A16B39
:103C84000B685B689BB2002B80D0A08D98427FF6B6
:103C94007DAFE3858B69202B08D1A18DE38D9BB289
:103CA400C91A89B22046FFF7DEFE6FE7D36823F412
:103CB4008073D3602268536923F00103536122683F
:103CC400536923F040035361202384F83E300023DA
:103CD40023632268D36823F01003D360A06BFFF73B
:103CE40043F9DAE7A18DE38D9BB2C91A89B2E38D5A
:103CF4009BB2002B3FF44AAF00293FF447AFD3688F
:103D040023F49073D3602268536923F00103536151
:103D1400202384F83E30002323632268D36823F0F1
:103D24001003D3602046FFF79EFE2FE72046FFF7DF
:103D34000FFD2BE72046FFF753FE27E75B3A000809
:103D440008B5406A036B012B02D0FFF756FE08BD8D
:103D5400818D4908FFF787FEF9E708B50346406AF5
:103D64001B681B6813F0200F16D10023C38502685B
:103D7400D36823F48073D3600268536923F001038A
:103D840053610268536923F040035361202380F890
:103D94003E30036B012B05D0036B012B08D0FEF7DB
:103DA4009BFA08BD0268D36823F01003D360F3E7DD
:103DB400818DFFF758FEF4E730B583B0044613460F
:103DC4008162828500250564222280F83E20826B70
:103DD40014489062A26B1448D062A26B134810631B
:103DE400A26B556320680A46011DA06BFFF782F899
:103DF400019523681A6801925A680192019A84F81D
:103E04003C50DA6842F48072DA602268536943F005
:103E1400010353612268536943F040035361284608
:103E240003B030BD5F3D0008453D0008033A00087B
:103E340008B590F83E30DBB2202B0DD171B17AB1C8
:103E440090F83C30012B0DD0012380F83C30002346
:103E54000363FFF7B1FF00E0022008BD0120FCE787
:103E64000120FAE70220F8E70C480D490D4A002327
:103E740002E0D458C4500433C4188C42F9D30A4A1B
:103E84000A4C002301E013600432A242FBD3FFF783
:103E940021FBFCF7E9F9FEF76DFA704700000020FA
:103EA40070000020384000087000002080010020CD
:103EB400FEE70000F8B500BFF8BC08BC9E4670479A
:0C3EC400F8B500BFF8BC08BC9E46704773
:103ED00004000020000000000000000000000000BE
:103EE00000000000000000000000000000000000D2
:103EF00000000000000000000000000000000000C2
:103F000000000000000000000000000000000000B1
:103F100000000000000000000000000000000000A1
:103F20000000000000000000000000000000000091
:103F3000000000000A00000025640A0002030405D6
:103F4000060708090A0B0C0D0E0F101000000000E8
:103F50000000000000000000010203040607080939
:103F600000000000010203045245454E54206D61DB
:103F70006C6C6F63207375636365656465640000D2
:103F80002E2E2F2E2E2F2E2E2F2E2E2F2E2E2F2E4C
:103F90002E2F2E2E2F2E2E2F6E65776C69622F6C92
:103FA0006962632F7374646C69622F72616E642E30
:103FB000630000002C2066756E6374696F6E3A2092
:103FC00000000000617373657274696F6E202225B2
:103FD0007322206661696C65643A2066696C6520AD
:103FE000222573222C206C696E652025642573259B
:103FF000730A0000232D302B20000000686C4C0059
:104000006566674546470000303132333435363710
:1040100038394142434445460000000030313233D4
:1040200034353637383961626364656600000000F4
:044030004D02000835
:044034002502000859
:104038000400002000000000143F0008F43E0008BF
:10404800D43E00080000000000000000000000004E
:104058000000000000000000000000000000000058
:104068000000000000000000000000000000000048
:104078000000000000000000000000000000000038
:104088000000000000000000000000000000000028
:104098000000000001000000100000000024F400EF
:0400000508003E6D44
:00000001FF
